{"abi":[{"type":"constructor","inputs":[{"name":"euroTokenAddress","type":"address","internalType":"address"},{"name":"initialOwner","type":"address","internalType":"address"}],"stateMutability":"nonpayable"},{"type":"function","name":"DEFAULT_ADMIN_ROLE","inputs":[],"outputs":[{"name":"","type":"bytes32","internalType":"bytes32"}],"stateMutability":"view"},{"type":"function","name":"PAYMENT_PROCESSOR_ROLE","inputs":[],"outputs":[{"name":"","type":"bytes32","internalType":"bytes32"}],"stateMutability":"view"},{"type":"function","name":"euroToken","inputs":[],"outputs":[{"name":"","type":"address","internalType":"contract IEuroToken"}],"stateMutability":"view"},{"type":"function","name":"getRoleAdmin","inputs":[{"name":"role","type":"bytes32","internalType":"bytes32"}],"outputs":[{"name":"","type":"bytes32","internalType":"bytes32"}],"stateMutability":"view"},{"type":"function","name":"grantPaymentProcessorRole","inputs":[{"name":"account","type":"address","internalType":"address"}],"outputs":[],"stateMutability":"nonpayable"},{"type":"function","name":"grantRole","inputs":[{"name":"role","type":"bytes32","internalType":"bytes32"},{"name":"account","type":"address","internalType":"address"}],"outputs":[],"stateMutability":"nonpayable"},{"type":"function","name":"hasRole","inputs":[{"name":"role","type":"bytes32","internalType":"bytes32"},{"name":"account","type":"address","internalType":"address"}],"outputs":[{"name":"","type":"bool","internalType":"bool"}],"stateMutability":"view"},{"type":"function","name":"processPayment","inputs":[{"name":"paymentId","type":"string","internalType":"string"},{"name":"payer","type":"address","internalType":"address"},{"name":"payee","type":"address","internalType":"address"},{"name":"amount","type":"uint256","internalType":"uint256"},{"name":"","type":"string","internalType":"string"}],"outputs":[{"name":"","type":"bool","internalType":"bool"}],"stateMutability":"nonpayable"},{"type":"function","name":"processedPayments","inputs":[{"name":"","type":"string","internalType":"string"}],"outputs":[{"name":"","type":"bool","internalType":"bool"}],"stateMutability":"view"},{"type":"function","name":"renounceRole","inputs":[{"name":"role","type":"bytes32","internalType":"bytes32"},{"name":"callerConfirmation","type":"address","internalType":"address"}],"outputs":[],"stateMutability":"nonpayable"},{"type":"function","name":"revokeRole","inputs":[{"name":"role","type":"bytes32","internalType":"bytes32"},{"name":"account","type":"address","internalType":"address"}],"outputs":[],"stateMutability":"nonpayable"},{"type":"function","name":"supportsInterface","inputs":[{"name":"interfaceId","type":"bytes4","internalType":"bytes4"}],"outputs":[{"name":"","type":"bool","internalType":"bool"}],"stateMutability":"view"},{"type":"event","name":"RoleAdminChanged","inputs":[{"name":"role","type":"bytes32","indexed":true,"internalType":"bytes32"},{"name":"previousAdminRole","type":"bytes32","indexed":true,"internalType":"bytes32"},{"name":"newAdminRole","type":"bytes32","indexed":true,"internalType":"bytes32"}],"anonymous":false},{"type":"event","name":"RoleGranted","inputs":[{"name":"role","type":"bytes32","indexed":true,"internalType":"bytes32"},{"name":"account","type":"address","indexed":true,"internalType":"address"},{"name":"sender","type":"address","indexed":true,"internalType":"address"}],"anonymous":false},{"type":"event","name":"RoleRevoked","inputs":[{"name":"role","type":"bytes32","indexed":true,"internalType":"bytes32"},{"name":"account","type":"address","indexed":true,"internalType":"address"},{"name":"sender","type":"address","indexed":true,"internalType":"address"}],"anonymous":false},{"type":"error","name":"AccessControlBadConfirmation","inputs":[]},{"type":"error","name":"AccessControlUnauthorizedAccount","inputs":[{"name":"account","type":"address","internalType":"address"},{"name":"neededRole","type":"bytes32","internalType":"bytes32"}]}],"bytecode":{"object":"0x60a0346100eb57601f610c0438819003918201601f19168301916001600160401b038311848410176100ef5780849260409485528339810103126100eb57610052602061004b83610103565b9201610103565b6001600160a01b039091169081156100905761007091608052610117565b50604051610a4390816101a18239608051818181610294015261066c0152f35b60405162461bcd60e51b815260206004820152602d60248201527f4d6f636b5061796d656e74476174657761793a20696e76616c6964204575726f60448201526c546f6b656e206164647265737360981b6064820152608490fd5b5f80fd5b634e487b7160e01b5f52604160045260245ffd5b51906001600160a01b03821682036100eb57565b6001600160a01b0381165f9081525f516020610be45f395f51905f52602052604090205460ff1661019b576001600160a01b03165f8181525f516020610be45f395f51905f5260205260408120805460ff191660011790553391907f2f8788117e7eff1d82e926ec794901d17c78024a50270940304540a733656f0d8180a4600190565b505f9056fe6080806040526004361015610012575f80fd5b5f3560e01c90816301ffc9a714610707575080630b7fe72d146106cd578063248a9ca31461069b5780632dfb39fd146106575780632f2ff15d1461061a57806336568abe146105d65780633c649fdb1461055c578063418b1f4a146101a557806391d148541461015d5780639b931abf14610102578063a217fddf146100e85763d547741f146100a0575f80fd5b346100e45760403660031901126100e4576100e26004356100bf61075a565b906100dd6100d8825f525f602052600160405f20015490565b6107fc565b61098d565b005b5f80fd5b346100e4575f3660031901126100e45760206040515f8152f35b346100e45760203660031901126100e45760043567ffffffffffffffff81116100e45760ff602080610139819436906004016107a6565b604051928184925191829101835e8101600181520301902054166040519015158152f35b346100e45760403660031901126100e45761017661075a565b6004355f525f60205260405f209060018060a01b03165f52602052602060ff60405f2054166040519015158152f35b346100e45760a03660031901126100e45760043567ffffffffffffffff81116100e4576101d69036906004016107a6565b6101de61075a565b906044356001600160a01b038116908190036100e4576064359260843567ffffffffffffffff81116100e4576102189036906004016107a6565b50335f9081527f18a99bda15e9a7322116e788ee9e2cd6977ead5311db5a71f601c108a21b5ef7602052604090205460ff1615610525576040519060ff845192602081818801958087835e8101600181520301902054166104ca576040516370a0823160e01b81526001600160a01b03918216600482018190527f00000000000000000000000000000000000000000000000000000000000000009092169490602081602481895afa80156103a75787915f91610495575b501061043f57604051636eb1769f60e11b815260048101839052306024820152602081604481895afa80156103a75787915f9161040a575b50106103b257602094606493865f93604051928391518091835e81016001815203019020600160ff1982541617905560405196879586946323b872dd60e01b86526004860152602485015260448401525af180156103a757610370575b602060405160018152f35b6020813d60201161039f575b8161038960209383610770565b810103126100e457518015158114610365575f80fd5b3d915061037c565b6040513d5f823e3d90fd5b60405162461bcd60e51b815260206004820152602a60248201527f4d6f636b5061796d656e74476174657761793a20696e73756666696369656e7460448201526920616c6c6f77616e636560b01b6064820152608490fd5b9150506020813d602011610437575b8161042660209383610770565b810103126100e45786905188610308565b3d9150610419565b60405162461bcd60e51b815260206004820152602860248201527f4d6f636b5061796d656e74476174657761793a20696e73756666696369656e746044820152672062616c616e636560c01b6064820152608490fd5b9150506020813d6020116104c2575b816104b160209383610770565b810103126100e457869051886102d0565b3d91506104a4565b60405162461bcd60e51b815260206004820152602d60248201527f4d6f636b5061796d656e74476174657761793a207061796d656e7420616c726560448201526c18591e481c1c9bd8d95cdcd959609a1b6064820152608490fd5b63e2517d3f60e01b5f52336004527fd7d8b7014b7ed36eb085c9e3e427b642d74cab75ecefda8a757042e63ec5991960245260445ffd5b346100e45760203660031901126100e4576004356001600160a01b03811681036100e457335f9081527fad3228b676f7d3cd4284a5443f17f1962b36e491b30a40b2405849e597ba5fb5602052604090205460ff16156105bf576100e290610834565b63e2517d3f60e01b5f52336004525f60245260445ffd5b346100e45760403660031901126100e4576105ef61075a565b336001600160a01b0382160361060b576100e29060043561098d565b63334bd91960e11b5f5260045ffd5b346100e45760403660031901126100e4576100e260043561063961075a565b906106526100d8825f525f602052600160405f20015490565b610905565b346100e4575f3660031901126100e4576040517f00000000000000000000000000000000000000000000000000000000000000006001600160a01b03168152602090f35b346100e45760203660031901126100e45760206106c56004355f525f602052600160405f20015490565b604051908152f35b346100e4575f3660031901126100e45760206040517fd7d8b7014b7ed36eb085c9e3e427b642d74cab75ecefda8a757042e63ec599198152f35b346100e45760203660031901126100e4576004359063ffffffff60e01b82168092036100e457602091637965db0b60e01b8114908115610749575b5015158152f35b6301ffc9a760e01b14905083610742565b602435906001600160a01b03821682036100e457565b90601f8019910116810190811067ffffffffffffffff82111761079257604052565b634e487b7160e01b5f52604160045260245ffd5b81601f820112156100e45780359067ffffffffffffffff821161079257604051926107db601f8401601f191660200185610770565b828452602083830101116100e457815f926020809301838601378301015290565b5f8181526020818152604080832033845290915290205460ff161561081e5750565b63e2517d3f60e01b5f523360045260245260445ffd5b6001600160a01b0381165f9081527f18a99bda15e9a7322116e788ee9e2cd6977ead5311db5a71f601c108a21b5ef7602052604090205460ff16610900576001600160a01b03165f8181527f18a99bda15e9a7322116e788ee9e2cd6977ead5311db5a71f601c108a21b5ef760205260408120805460ff191660011790553391907fd7d8b7014b7ed36eb085c9e3e427b642d74cab75ecefda8a757042e63ec59919907f2f8788117e7eff1d82e926ec794901d17c78024a50270940304540a733656f0d9080a4600190565b505f90565b5f818152602081815260408083206001600160a01b038616845290915290205460ff16610987575f818152602081815260408083206001600160a01b0395909516808452949091528120805460ff19166001179055339291907f2f8788117e7eff1d82e926ec794901d17c78024a50270940304540a733656f0d9080a4600190565b50505f90565b5f818152602081815260408083206001600160a01b038616845290915290205460ff1615610987575f818152602081815260408083206001600160a01b0395909516808452949091528120805460ff19169055339291907ff6391f5c32d9c69d2a47ea670b442974b53935d1edc7fd64eb21e047a839171b9080a460019056fea2646970667358221220a82f79ca7d8142db2c43c4c2141255104893784ce7ea1812762a0e526fc1d88264736f6c634300081e0033ad3228b676f7d3cd4284a5443f17f1962b36e491b30a40b2405849e597ba5fb5","linkReferences":{}},"methodIdentifiers":{"DEFAULT_ADMIN_ROLE()":"a217fddf","PAYMENT_PROCESSOR_ROLE()":"0b7fe72d","euroToken()":"2dfb39fd","getRoleAdmin(bytes32)":"248a9ca3","grantPaymentProcessorRole(address)":"3c649fdb","grantRole(bytes32,address)":"2f2ff15d","hasRole(bytes32,address)":"91d14854","processPayment(string,address,address,uint256,string)":"418b1f4a","processedPayments(string)":"9b931abf","renounceRole(bytes32,address)":"36568abe","revokeRole(bytes32,address)":"d547741f","supportsInterface(bytes4)":"01ffc9a7"},"id":38}