{"abi":[{"type":"constructor","inputs":[{"name":"euroTokenAddress","type":"address","internalType":"address"},{"name":"initialOwner","type":"address","internalType":"address"}],"stateMutability":"nonpayable"},{"type":"function","name":"DEFAULT_ADMIN_ROLE","inputs":[],"outputs":[{"name":"","type":"bytes32","internalType":"bytes32"}],"stateMutability":"view"},{"type":"function","name":"PURCHASER_ROLE","inputs":[],"outputs":[{"name":"","type":"bytes32","internalType":"bytes32"}],"stateMutability":"view"},{"type":"function","name":"euroToken","inputs":[],"outputs":[{"name":"","type":"address","internalType":"contract IEuroToken"}],"stateMutability":"view"},{"type":"function","name":"getPurchase","inputs":[{"name":"purchaseId","type":"string","internalType":"string"}],"outputs":[{"name":"","type":"tuple","internalType":"struct StablecoinPurchase.Purchase","components":[{"name":"purchaseId","type":"string","internalType":"string"},{"name":"buyer","type":"address","internalType":"address"},{"name":"amountTokens","type":"uint256","internalType":"uint256"},{"name":"amountEur","type":"uint256","internalType":"uint256"},{"name":"timestamp","type":"uint256","internalType":"uint256"},{"name":"processed","type":"bool","internalType":"bool"}]}],"stateMutability":"view"},{"type":"function","name":"getRoleAdmin","inputs":[{"name":"role","type":"bytes32","internalType":"bytes32"}],"outputs":[{"name":"","type":"bytes32","internalType":"bytes32"}],"stateMutability":"view"},{"type":"function","name":"getTotalPurchases","inputs":[],"outputs":[{"name":"","type":"uint256","internalType":"uint256"}],"stateMutability":"view"},{"type":"function","name":"getUserPurchases","inputs":[{"name":"user","type":"address","internalType":"address"}],"outputs":[{"name":"","type":"tuple[]","internalType":"struct StablecoinPurchase.Purchase[]","components":[{"name":"purchaseId","type":"string","internalType":"string"},{"name":"buyer","type":"address","internalType":"address"},{"name":"amountTokens","type":"uint256","internalType":"uint256"},{"name":"amountEur","type":"uint256","internalType":"uint256"},{"name":"timestamp","type":"uint256","internalType":"uint256"},{"name":"processed","type":"bool","internalType":"bool"}]}],"stateMutability":"view"},{"type":"function","name":"grantPurchaserRole","inputs":[{"name":"account","type":"address","internalType":"address"}],"outputs":[],"stateMutability":"nonpayable"},{"type":"function","name":"grantRole","inputs":[{"name":"role","type":"bytes32","internalType":"bytes32"},{"name":"account","type":"address","internalType":"address"}],"outputs":[],"stateMutability":"nonpayable"},{"type":"function","name":"hasRole","inputs":[{"name":"role","type":"bytes32","internalType":"bytes32"},{"name":"account","type":"address","internalType":"address"}],"outputs":[{"name":"","type":"bool","internalType":"bool"}],"stateMutability":"view"},{"type":"function","name":"isPurchaseProcessed","inputs":[{"name":"purchaseId","type":"string","internalType":"string"}],"outputs":[{"name":"","type":"bool","internalType":"bool"}],"stateMutability":"view"},{"type":"function","name":"purchaseIds","inputs":[{"name":"","type":"uint256","internalType":"uint256"}],"outputs":[{"name":"","type":"string","internalType":"string"}],"stateMutability":"view"},{"type":"function","name":"purchaseTokens","inputs":[{"name":"purchaseId","type":"string","internalType":"string"},{"name":"buyer","type":"address","internalType":"address"},{"name":"amountEur","type":"uint256","internalType":"uint256"}],"outputs":[],"stateMutability":"nonpayable"},{"type":"function","name":"purchases","inputs":[{"name":"","type":"string","internalType":"string"}],"outputs":[{"name":"purchaseId","type":"string","internalType":"string"},{"name":"buyer","type":"address","internalType":"address"},{"name":"amountTokens","type":"uint256","internalType":"uint256"},{"name":"amountEur","type":"uint256","internalType":"uint256"},{"name":"timestamp","type":"uint256","internalType":"uint256"},{"name":"processed","type":"bool","internalType":"bool"}],"stateMutability":"view"},{"type":"function","name":"renounceRole","inputs":[{"name":"role","type":"bytes32","internalType":"bytes32"},{"name":"callerConfirmation","type":"address","internalType":"address"}],"outputs":[],"stateMutability":"nonpayable"},{"type":"function","name":"revokePurchaserRole","inputs":[{"name":"account","type":"address","internalType":"address"}],"outputs":[],"stateMutability":"nonpayable"},{"type":"function","name":"revokeRole","inputs":[{"name":"role","type":"bytes32","internalType":"bytes32"},{"name":"account","type":"address","internalType":"address"}],"outputs":[],"stateMutability":"nonpayable"},{"type":"function","name":"supportsInterface","inputs":[{"name":"interfaceId","type":"bytes4","internalType":"bytes4"}],"outputs":[{"name":"","type":"bool","internalType":"bool"}],"stateMutability":"view"},{"type":"function","name":"userPurchases","inputs":[{"name":"","type":"address","internalType":"address"},{"name":"","type":"uint256","internalType":"uint256"}],"outputs":[{"name":"","type":"string","internalType":"string"}],"stateMutability":"view"},{"type":"event","name":"PurchaserRoleGranted","inputs":[{"name":"account","type":"address","indexed":true,"internalType":"address"},{"name":"admin","type":"address","indexed":true,"internalType":"address"}],"anonymous":false},{"type":"event","name":"PurchaserRoleRevoked","inputs":[{"name":"account","type":"address","indexed":true,"internalType":"address"},{"name":"admin","type":"address","indexed":true,"internalType":"address"}],"anonymous":false},{"type":"event","name":"RoleAdminChanged","inputs":[{"name":"role","type":"bytes32","indexed":true,"internalType":"bytes32"},{"name":"previousAdminRole","type":"bytes32","indexed":true,"internalType":"bytes32"},{"name":"newAdminRole","type":"bytes32","indexed":true,"internalType":"bytes32"}],"anonymous":false},{"type":"event","name":"RoleGranted","inputs":[{"name":"role","type":"bytes32","indexed":true,"internalType":"bytes32"},{"name":"account","type":"address","indexed":true,"internalType":"address"},{"name":"sender","type":"address","indexed":true,"internalType":"address"}],"anonymous":false},{"type":"event","name":"RoleRevoked","inputs":[{"name":"role","type":"bytes32","indexed":true,"internalType":"bytes32"},{"name":"account","type":"address","indexed":true,"internalType":"address"},{"name":"sender","type":"address","indexed":true,"internalType":"address"}],"anonymous":false},{"type":"event","name":"TokensPurchased","inputs":[{"name":"purchaseId","type":"string","indexed":true,"internalType":"string"},{"name":"buyer","type":"address","indexed":true,"internalType":"address"},{"name":"amountTokens","type":"uint256","indexed":false,"internalType":"uint256"},{"name":"amountEur","type":"uint256","indexed":false,"internalType":"uint256"},{"name":"timestamp","type":"uint256","indexed":false,"internalType":"uint256"}],"anonymous":false},{"type":"error","name":"AccessControlBadConfirmation","inputs":[]},{"type":"error","name":"AccessControlUnauthorizedAccount","inputs":[{"name":"account","type":"address","internalType":"address"},{"name":"neededRole","type":"bytes32","internalType":"bytes32"}]},{"type":"error","name":"ReentrancyGuardReentrantCall","inputs":[]}],"bytecode":{"object":"0x60a060405234801561000f575f5ffd5b50604051612a53380380612a538339818101604052810190610031919061036e565b600161004f61004461017f60201b60201c565b6101a860201b60201c565b5f01819055505f73ffffffffffffffffffffffffffffffffffffffff168273ffffffffffffffffffffffffffffffffffffffff16036100c3576040517f08c379a00000000000000000000000000000000000000000000000000000000081526004016100ba9061042c565b60405180910390fd5b5f73ffffffffffffffffffffffffffffffffffffffff168173ffffffffffffffffffffffffffffffffffffffff1603610131576040517f08c379a0000000000000000000000000000000000000000000000000000000008152600401610128906104ba565b60405180910390fd5b8173ffffffffffffffffffffffffffffffffffffffff1660808173ffffffffffffffffffffffffffffffffffffffff16815250506101775f5f1b826101b160201b60201c565b5050506104d8565b5f7f9b779b17422d0df92223018b32b4d1fa46e071723d6817e2486d003becc55f005f1b905090565b5f819050919050565b5f6101c283836102a660201b60201c565b61029c5760015f5f8581526020019081526020015f205f015f8473ffffffffffffffffffffffffffffffffffffffff1673ffffffffffffffffffffffffffffffffffffffff1681526020019081526020015f205f6101000a81548160ff02191690831515021790555061023961030960201b60201c565b73ffffffffffffffffffffffffffffffffffffffff168273ffffffffffffffffffffffffffffffffffffffff16847f2f8788117e7eff1d82e926ec794901d17c78024a50270940304540a733656f0d60405160405180910390a4600190506102a0565b5f90505b92915050565b5f5f5f8481526020019081526020015f205f015f8373ffffffffffffffffffffffffffffffffffffffff1673ffffffffffffffffffffffffffffffffffffffff1681526020019081526020015f205f9054906101000a900460ff16905092915050565b5f33905090565b5f5ffd5b5f73ffffffffffffffffffffffffffffffffffffffff82169050919050565b5f61033d82610314565b9050919050565b61034d81610333565b8114610357575f5ffd5b50565b5f8151905061036881610344565b92915050565b5f5f6040838503121561038457610383610310565b5b5f6103918582860161035a565b92505060206103a28582860161035a565b9150509250929050565b5f82825260208201905092915050565b7f537461626c65636f696e50757263686173653a20696e76616c6964204575726f5f8201527f546f6b656e206164647265737300000000000000000000000000000000000000602082015250565b5f610416602d836103ac565b9150610421826103bc565b604082019050919050565b5f6020820190508181035f8301526104438161040a565b9050919050565b7f537461626c65636f696e50757263686173653a20696e76616c6964206f776e655f8201527f7220616464726573730000000000000000000000000000000000000000000000602082015250565b5f6104a46029836103ac565b91506104af8261044a565b604082019050919050565b5f6020820190508181035f8301526104d181610498565b9050919050565b60805161255c6104f75f395f818161048f0152610e95015261255c5ff3fe608060405234801561000f575f5ffd5b506004361061011f575f3560e01c806391d14854116100ab578063d547741f1161006f578063d547741f14610340578063d65fb1601461035c578063da5d0bbe1461038c578063ea04f155146103bc578063ea3eb636146103da5761011f565b806391d1485414610276578063a217fddf146102a6578063c6e5d8f6146102c4578063cf2c0334146102f4578063d399a9b5146103245761011f565b806336568abe116100f257806336568abe146101bd57806345590863146101d95780636a8164b1146101f55780636f9a98fb14610225578063907cba051461025a5761011f565b806301ffc9a714610123578063248a9ca3146101535780632dfb39fd146101835780632f2ff15d146101a1575b5f5ffd5b61013d6004803603810190610138919061167e565b6103f8565b60405161014a91906116c3565b60405180910390f35b61016d6004803603810190610168919061170f565b610471565b60405161017a9190611749565b60405180910390f35b61018b61048d565b60405161019891906117dc565b60405180910390f35b6101bb60048036038101906101b69190611830565b6104b1565b005b6101d760048036038101906101d29190611830565b6104d3565b005b6101f360048036038101906101ee919061186e565b61054e565b005b61020f600480360381019061020a91906119d5565b6105e3565b60405161021c9190611b38565b60405180910390f35b61023f600480360381019061023a91906119d5565b610737565b60405161025196959493929190611bbe565b60405180910390f35b610274600480360381019061026f919061186e565b610838565b005b610290600480360381019061028b9190611830565b6108cd565b60405161029d91906116c3565b60405180910390f35b6102ae610930565b6040516102bb9190611749565b60405180910390f35b6102de60048036038101906102d9919061186e565b610936565b6040516102eb9190611d65565b60405180910390f35b61030e60048036038101906103099190611daf565b610c3e565b60405161031b9190611ded565b60405180910390f35b61033e60048036038101906103399190611e0d565b610cef565b005b61035a60048036038101906103559190611830565b61112f565b005b61037660048036038101906103719190611e79565b611151565b6040516103839190611ded565b60405180910390f35b6103a660048036038101906103a191906119d5565b6111f7565b6040516103b391906116c3565b60405180910390f35b6103c461122d565b6040516103d19190611ea4565b60405180910390f35b6103e2611239565b6040516103ef9190611749565b60405180910390f35b5f7f7965db0b000000000000000000000000000000000000000000000000000000007bffffffffffffffffffffffffffffffffffffffffffffffffffffffff1916827bffffffffffffffffffffffffffffffffffffffffffffffffffffffff1916148061046a57506104698261125d565b5b9050919050565b5f5f5f8381526020019081526020015f20600101549050919050565b7f000000000000000000000000000000000000000000000000000000000000000081565b6104ba82610471565b6104c3816112c6565b6104cd83836112da565b50505050565b6104db6113c3565b73ffffffffffffffffffffffffffffffffffffffff168173ffffffffffffffffffffffffffffffffffffffff161461053f576040517f6697b23200000000000000000000000000000000000000000000000000000000815260040160405180910390fd5b61054982826113ca565b505050565b5f5f1b61055a816112c6565b6105847ff5c77a70bbc0f68abeebbb8d635220898d1094a56846539a8305b811ed4ed683836113ca565b503373ffffffffffffffffffffffffffffffffffffffff168273ffffffffffffffffffffffffffffffffffffffff167fe1dbab887f5aea2bd7e9e679d61c2c8b68a76428404736298109b4c264409c0460405160405180910390a35050565b6105eb6115cf565b6001826040516105fb9190611ef7565b90815260200160405180910390206040518060c00160405290815f8201805461062390611f3a565b80601f016020809104026020016040519081016040528092919081815260200182805461064f90611f3a565b801561069a5780601f106106715761010080835404028352916020019161069a565b820191905f5260205f20905b81548152906001019060200180831161067d57829003601f168201915b50505050508152602001600182015f9054906101000a900473ffffffffffffffffffffffffffffffffffffffff1673ffffffffffffffffffffffffffffffffffffffff1673ffffffffffffffffffffffffffffffffffffffff168152602001600282015481526020016003820154815260200160048201548152602001600582015f9054906101000a900460ff1615151515815250509050919050565b6001818051602081018201805184825260208301602085012081835280955050505050505f91509050805f01805461076e90611f3a565b80601f016020809104026020016040519081016040528092919081815260200182805461079a90611f3a565b80156107e55780601f106107bc576101008083540402835291602001916107e5565b820191905f5260205f20905b8154815290600101906020018083116107c857829003601f168201915b505050505090806001015f9054906101000a900473ffffffffffffffffffffffffffffffffffffffff1690806002015490806003015490806004015490806005015f9054906101000a900460ff16905086565b5f5f1b610844816112c6565b61086e7ff5c77a70bbc0f68abeebbb8d635220898d1094a56846539a8305b811ed4ed683836112da565b503373ffffffffffffffffffffffffffffffffffffffff168273ffffffffffffffffffffffffffffffffffffffff167f284b90c2e79b67328a0a4ca1d0c77a8e395f3d6993be8090d1ff21919195babd60405160405180910390a35050565b5f5f5f8481526020019081526020015f205f015f8373ffffffffffffffffffffffffffffffffffffffff1673ffffffffffffffffffffffffffffffffffffffff1681526020019081526020015f205f9054906101000a900460ff16905092915050565b5f5f1b81565b60605f60035f8473ffffffffffffffffffffffffffffffffffffffff1673ffffffffffffffffffffffffffffffffffffffff1681526020019081526020015f20805480602002602001604051908101604052809291908181526020015f905b82821015610a3d578382905f5260205f200180546109b290611f3a565b80601f01602080910402602001604051908101604052809291908181526020018280546109de90611f3a565b8015610a295780601f10610a0057610100808354040283529160200191610a29565b820191905f5260205f20905b815481529060010190602001808311610a0c57829003601f168201915b505050505081526020019060010190610995565b5050505090505f815167ffffffffffffffff811115610a5f57610a5e6118b1565b5b604051908082528060200260200182016040528015610a9857816020015b610a856115cf565b815260200190600190039081610a7d5790505b5090505f5f90505b8251811015610c33576001838281518110610abe57610abd611f6a565b5b6020026020010151604051610ad39190611ef7565b90815260200160405180910390206040518060c00160405290815f82018054610afb90611f3a565b80601f0160208091040260200160405190810160405280929190818152602001828054610b2790611f3a565b8015610b725780601f10610b4957610100808354040283529160200191610b72565b820191905f5260205f20905b815481529060010190602001808311610b5557829003601f168201915b50505050508152602001600182015f9054906101000a900473ffffffffffffffffffffffffffffffffffffffff1673ffffffffffffffffffffffffffffffffffffffff1673ffffffffffffffffffffffffffffffffffffffff168152602001600282015481526020016003820154815260200160048201548152602001600582015f9054906101000a900460ff161515151581525050828281518110610c1b57610c1a611f6a565b5b60200260200101819052508080600101915050610aa0565b508092505050919050565b6003602052815f5260405f208181548110610c57575f80fd5b905f5260205f20015f91509150508054610c7090611f3a565b80601f0160208091040260200160405190810160405280929190818152602001828054610c9c90611f3a565b8015610ce75780601f10610cbe57610100808354040283529160200191610ce7565b820191905f5260205f20905b815481529060010190602001808311610cca57829003601f168201915b505050505081565b7ff5c77a70bbc0f68abeebbb8d635220898d1094a56846539a8305b811ed4ed683610d19816112c6565b610d216114b3565b5f845111610d64576040517f08c379a0000000000000000000000000000000000000000000000000000000008152600401610d5b90612007565b60405180910390fd5b5f73ffffffffffffffffffffffffffffffffffffffff168373ffffffffffffffffffffffffffffffffffffffff1603610dd2576040517f08c379a0000000000000000000000000000000000000000000000000000000008152600401610dc990612095565b60405180910390fd5b5f8211610e14576040517f08c379a0000000000000000000000000000000000000000000000000000000008152600401610e0b90612123565b60405180910390fd5b600184604051610e249190611ef7565b90815260200160405180910390206005015f9054906101000a900460ff1615610e82576040517f08c379a0000000000000000000000000000000000000000000000000000000008152600401610e79906121b1565b60405180910390fd5b5f61271083610e9191906121fc565b90507f000000000000000000000000000000000000000000000000000000000000000073ffffffffffffffffffffffffffffffffffffffff166340c10f1985836040518363ffffffff1660e01b8152600401610eee92919061223d565b5f604051808303815f87803b158015610f05575f5ffd5b505af1158015610f17573d5f5f3e3d5ffd5b505050506040518060c001604052808681526020018573ffffffffffffffffffffffffffffffffffffffff16815260200182815260200184815260200142815260200160011515815250600186604051610f719190611ef7565b90815260200160405180910390205f820151815f019081610f9291906123fb565b506020820151816001015f6101000a81548173ffffffffffffffffffffffffffffffffffffffff021916908373ffffffffffffffffffffffffffffffffffffffff16021790555060408201518160020155606082015181600301556080820151816004015560a0820151816005015f6101000a81548160ff021916908315150217905550905050600285908060018154018082558091505060019003905f5260205f20015f90919091909150908161104a91906123fb565b5060035f8573ffffffffffffffffffffffffffffffffffffffff1673ffffffffffffffffffffffffffffffffffffffff1681526020019081526020015f2085908060018154018082558091505060019003905f5260205f20015f9091909190915090816110b791906123fb565b508373ffffffffffffffffffffffffffffffffffffffff16856040516110dd9190611ef7565b60405180910390207fe068040e29c63ff86ad6ff3672d58bf0cb6a0b2181521ffa1f811b655f2e4ca4838642604051611118939291906124ca565b60405180910390a3506111296114d5565b50505050565b61113882610471565b611141816112c6565b61114b83836113ca565b50505050565b60028181548110611160575f80fd5b905f5260205f20015f91509050805461117890611f3a565b80601f01602080910402602001604051908101604052809291908181526020018280546111a490611f3a565b80156111ef5780601f106111c6576101008083540402835291602001916111ef565b820191905f5260205f20905b8154815290600101906020018083116111d257829003601f168201915b505050505081565b5f6001826040516112089190611ef7565b90815260200160405180910390206005015f9054906101000a900460ff169050919050565b5f600280549050905090565b7ff5c77a70bbc0f68abeebbb8d635220898d1094a56846539a8305b811ed4ed68381565b5f7f01ffc9a7000000000000000000000000000000000000000000000000000000007bffffffffffffffffffffffffffffffffffffffffffffffffffffffff1916827bffffffffffffffffffffffffffffffffffffffffffffffffffffffff1916149050919050565b6112d7816112d26113c3565b6114ef565b50565b5f6112e583836108cd565b6113b95760015f5f8581526020019081526020015f205f015f8473ffffffffffffffffffffffffffffffffffffffff1673ffffffffffffffffffffffffffffffffffffffff1681526020019081526020015f205f6101000a81548160ff0219169083151502179055506113566113c3565b73ffffffffffffffffffffffffffffffffffffffff168273ffffffffffffffffffffffffffffffffffffffff16847f2f8788117e7eff1d82e926ec794901d17c78024a50270940304540a733656f0d60405160405180910390a4600190506113bd565b5f90505b92915050565b5f33905090565b5f6113d583836108cd565b156114a9575f5f5f8581526020019081526020015f205f015f8473ffffffffffffffffffffffffffffffffffffffff1673ffffffffffffffffffffffffffffffffffffffff1681526020019081526020015f205f6101000a81548160ff0219169083151502179055506114466113c3565b73ffffffffffffffffffffffffffffffffffffffff168273ffffffffffffffffffffffffffffffffffffffff16847ff6391f5c32d9c69d2a47ea670b442974b53935d1edc7fd64eb21e047a839171b60405160405180910390a4600190506114ad565b5f90505b92915050565b6114bb611540565b60026114cd6114c8611581565b6115aa565b5f0181905550565b60016114e76114e2611581565b6115aa565b5f0181905550565b6114f982826108cd565b61153c5780826040517fe2517d3f0000000000000000000000000000000000000000000000000000000081526004016115339291906124ff565b60405180910390fd5b5050565b6115486115b3565b1561157f576040517f3ee5aeb500000000000000000000000000000000000000000000000000000000815260040160405180910390fd5b565b5f7f9b779b17422d0df92223018b32b4d1fa46e071723d6817e2486d003becc55f005f1b905090565b5f819050919050565b5f60026115c66115c1611581565b6115aa565b5f015414905090565b6040518060c00160405280606081526020015f73ffffffffffffffffffffffffffffffffffffffff1681526020015f81526020015f81526020015f81526020015f151581525090565b5f604051905090565b5f5ffd5b5f5ffd5b5f7fffffffff0000000000000000000000000000000000000000000000000000000082169050919050565b61165d81611629565b8114611667575f5ffd5b50565b5f8135905061167881611654565b92915050565b5f6020828403121561169357611692611621565b5b5f6116a08482850161166a565b91505092915050565b5f8115159050919050565b6116bd816116a9565b82525050565b5f6020820190506116d65f8301846116b4565b92915050565b5f819050919050565b6116ee816116dc565b81146116f8575f5ffd5b50565b5f81359050611709816116e5565b92915050565b5f6020828403121561172457611723611621565b5b5f611731848285016116fb565b91505092915050565b611743816116dc565b82525050565b5f60208201905061175c5f83018461173a565b92915050565b5f73ffffffffffffffffffffffffffffffffffffffff82169050919050565b5f819050919050565b5f6117a461179f61179a84611762565b611781565b611762565b9050919050565b5f6117b58261178a565b9050919050565b5f6117c6826117ab565b9050919050565b6117d6816117bc565b82525050565b5f6020820190506117ef5f8301846117cd565b92915050565b5f6117ff82611762565b9050919050565b61180f816117f5565b8114611819575f5ffd5b50565b5f8135905061182a81611806565b92915050565b5f5f6040838503121561184657611845611621565b5b5f611853858286016116fb565b92505060206118648582860161181c565b9150509250929050565b5f6020828403121561188357611882611621565b5b5f6118908482850161181c565b91505092915050565b5f5ffd5b5f5ffd5b5f601f19601f8301169050919050565b7f4e487b71000000000000000000000000000000000000000000000000000000005f52604160045260245ffd5b6118e7826118a1565b810181811067ffffffffffffffff82111715611906576119056118b1565b5b80604052505050565b5f611918611618565b905061192482826118de565b919050565b5f67ffffffffffffffff821115611943576119426118b1565b5b61194c826118a1565b9050602081019050919050565b828183375f83830152505050565b5f61197961197484611929565b61190f565b9050828152602081018484840111156119955761199461189d565b5b6119a0848285611959565b509392505050565b5f82601f8301126119bc576119bb611899565b5b81356119cc848260208601611967565b91505092915050565b5f602082840312156119ea576119e9611621565b5b5f82013567ffffffffffffffff811115611a0757611a06611625565b5b611a13848285016119a8565b91505092915050565b5f81519050919050565b5f82825260208201905092915050565b8281835e5f83830152505050565b5f611a4e82611a1c565b611a588185611a26565b9350611a68818560208601611a36565b611a71816118a1565b840191505092915050565b611a85816117f5565b82525050565b5f819050919050565b611a9d81611a8b565b82525050565b611aac816116a9565b82525050565b5f60c083015f8301518482035f860152611acc8282611a44565b9150506020830151611ae16020860182611a7c565b506040830151611af46040860182611a94565b506060830151611b076060860182611a94565b506080830151611b1a6080860182611a94565b5060a0830151611b2d60a0860182611aa3565b508091505092915050565b5f6020820190508181035f830152611b508184611ab2565b905092915050565b5f82825260208201905092915050565b5f611b7282611a1c565b611b7c8185611b58565b9350611b8c818560208601611a36565b611b95816118a1565b840191505092915050565b611ba9816117f5565b82525050565b611bb881611a8b565b82525050565b5f60c0820190508181035f830152611bd68189611b68565b9050611be56020830188611ba0565b611bf26040830187611baf565b611bff6060830186611baf565b611c0c6080830185611baf565b611c1960a08301846116b4565b979650505050505050565b5f81519050919050565b5f82825260208201905092915050565b5f819050602082019050919050565b5f60c083015f8301518482035f860152611c678282611a44565b9150506020830151611c7c6020860182611a7c565b506040830151611c8f6040860182611a94565b506060830151611ca26060860182611a94565b506080830151611cb56080860182611a94565b5060a0830151611cc860a0860182611aa3565b508091505092915050565b5f611cde8383611c4d565b905092915050565b5f602082019050919050565b5f611cfc82611c24565b611d068185611c2e565b935083602082028501611d1885611c3e565b805f5b85811015611d535784840389528151611d348582611cd3565b9450611d3f83611ce6565b925060208a01995050600181019050611d1b565b50829750879550505050505092915050565b5f6020820190508181035f830152611d7d8184611cf2565b905092915050565b611d8e81611a8b565b8114611d98575f5ffd5b50565b5f81359050611da981611d85565b92915050565b5f5f60408385031215611dc557611dc4611621565b5b5f611dd28582860161181c565b9250506020611de385828601611d9b565b9150509250929050565b5f6020820190508181035f830152611e058184611b68565b905092915050565b5f5f5f60608486031215611e2457611e23611621565b5b5f84013567ffffffffffffffff811115611e4157611e40611625565b5b611e4d868287016119a8565b9350506020611e5e8682870161181c565b9250506040611e6f86828701611d9b565b9150509250925092565b5f60208284031215611e8e57611e8d611621565b5b5f611e9b84828501611d9b565b91505092915050565b5f602082019050611eb75f830184611baf565b92915050565b5f81905092915050565b5f611ed182611a1c565b611edb8185611ebd565b9350611eeb818560208601611a36565b80840191505092915050565b5f611f028284611ec7565b915081905092915050565b7f4e487b71000000000000000000000000000000000000000000000000000000005f52602260045260245ffd5b5f6002820490506001821680611f5157607f821691505b602082108103611f6457611f63611f0d565b5b50919050565b7f4e487b71000000000000000000000000000000000000000000000000000000005f52603260045260245ffd5b7f537461626c65636f696e50757263686173653a207075726368617365496420635f8201527f616e6e6f7420626520656d707479000000000000000000000000000000000000602082015250565b5f611ff1602e83611b58565b9150611ffc82611f97565b604082019050919050565b5f6020820190508181035f83015261201e81611fe5565b9050919050565b7f537461626c65636f696e50757263686173653a2062757965722063616e6e6f745f8201527f206265207a65726f206164647265737300000000000000000000000000000000602082015250565b5f61207f603083611b58565b915061208a82612025565b604082019050919050565b5f6020820190508181035f8301526120ac81612073565b9050919050565b7f537461626c65636f696e50757263686173653a20616d6f756e74206d757374205f8201527f62652067726561746572207468616e207a65726f000000000000000000000000602082015250565b5f61210d603483611b58565b9150612118826120b3565b604082019050919050565b5f6020820190508181035f83015261213a81612101565b9050919050565b7f537461626c65636f696e50757263686173653a20707572636861736520616c725f8201527f656164792070726f636573736564000000000000000000000000000000000000602082015250565b5f61219b602e83611b58565b91506121a682612141565b604082019050919050565b5f6020820190508181035f8301526121c88161218f565b9050919050565b7f4e487b71000000000000000000000000000000000000000000000000000000005f52601160045260245ffd5b5f61220682611a8b565b915061221183611a8b565b925082820261221f81611a8b565b91508282048414831517612236576122356121cf565b5b5092915050565b5f6040820190506122505f830185611ba0565b61225d6020830184611baf565b9392505050565b5f819050815f5260205f209050919050565b5f6020601f8301049050919050565b5f82821b905092915050565b5f600883026122c07fffffffffffffffffffffffffffffffffffffffffffffffffffffffffffffffff82612285565b6122ca8683612285565b95508019841693508086168417925050509392505050565b5f6122fc6122f76122f284611a8b565b611781565b611a8b565b9050919050565b5f819050919050565b612315836122e2565b61232961232182612303565b848454612291565b825550505050565b5f5f905090565b612340612331565b61234b81848461230c565b505050565b5b8181101561236e576123635f82612338565b600181019050612351565b5050565b601f8211156123b35761238481612264565b61238d84612276565b8101602085101561239c578190505b6123b06123a885612276565b830182612350565b50505b505050565b5f82821c905092915050565b5f6123d35f19846008026123b8565b1980831691505092915050565b5f6123eb83836123c4565b9150826002028217905092915050565b61240482611a1c565b67ffffffffffffffff81111561241d5761241c6118b1565b5b6124278254611f3a565b612432828285612372565b5f60209050601f831160018114612463575f8415612451578287015190505b61245b85826123e0565b8655506124c2565b601f19841661247186612264565b5f5b8281101561249857848901518255600182019150602085019450602081019050612473565b868310156124b557848901516124b1601f8916826123c4565b8355505b6001600288020188555050505b505050505050565b5f6060820190506124dd5f830186611baf565b6124ea6020830185611baf565b6124f76040830184611baf565b949350505050565b5f6040820190506125125f830185611ba0565b61251f602083018461173a565b939250505056fea2646970667358221220041ede5eef220f676d3162d90333806da01345e39ab6c648433e8fb63cc7d04d64736f6c634300081e0033","linkReferences":{}},"methodIdentifiers":{"DEFAULT_ADMIN_ROLE()":"a217fddf","PURCHASER_ROLE()":"ea3eb636","euroToken()":"2dfb39fd","getPurchase(string)":"6a8164b1","getRoleAdmin(bytes32)":"248a9ca3","getTotalPurchases()":"ea04f155","getUserPurchases(address)":"c6e5d8f6","grantPurchaserRole(address)":"907cba05","grantRole(bytes32,address)":"2f2ff15d","hasRole(bytes32,address)":"91d14854","isPurchaseProcessed(string)":"da5d0bbe","purchaseIds(uint256)":"d65fb160","purchaseTokens(string,address,uint256)":"d399a9b5","purchases(string)":"6f9a98fb","renounceRole(bytes32,address)":"36568abe","revokePurchaserRole(address)":"45590863","revokeRole(bytes32,address)":"d547741f","supportsInterface(bytes4)":"01ffc9a7","userPurchases(address,uint256)":"cf2c0334"},"id":32}