{"abi":[{"type":"constructor","inputs":[{"name":"euroTokenAddress","type":"address","internalType":"address"},{"name":"initialOwner","type":"address","internalType":"address"}],"stateMutability":"nonpayable"},{"type":"function","name":"DEFAULT_ADMIN_ROLE","inputs":[],"outputs":[{"name":"","type":"bytes32","internalType":"bytes32"}],"stateMutability":"view"},{"type":"function","name":"PAYMENT_PROCESSOR_ROLE","inputs":[],"outputs":[{"name":"","type":"bytes32","internalType":"bytes32"}],"stateMutability":"view"},{"type":"function","name":"canProcessPayment","inputs":[{"name":"payer","type":"address","internalType":"address"},{"name":"amount","type":"uint256","internalType":"uint256"}],"outputs":[{"name":"","type":"bool","internalType":"bool"}],"stateMutability":"view"},{"type":"function","name":"euroToken","inputs":[],"outputs":[{"name":"","type":"address","internalType":"contract IEuroToken"}],"stateMutability":"view"},{"type":"function","name":"getPayeePayments","inputs":[{"name":"payee","type":"address","internalType":"address"}],"outputs":[{"name":"","type":"tuple[]","internalType":"struct PaymentGateway.Payment[]","components":[{"name":"paymentId","type":"string","internalType":"string"},{"name":"payer","type":"address","internalType":"address"},{"name":"payee","type":"address","internalType":"address"},{"name":"amount","type":"uint256","internalType":"uint256"},{"name":"invoiceId","type":"string","internalType":"string"},{"name":"timestamp","type":"uint256","internalType":"uint256"},{"name":"processed","type":"bool","internalType":"bool"},{"name":"txHash","type":"bytes32","internalType":"bytes32"}]}],"stateMutability":"view"},{"type":"function","name":"getPayerPayments","inputs":[{"name":"payer","type":"address","internalType":"address"}],"outputs":[{"name":"","type":"tuple[]","internalType":"struct PaymentGateway.Payment[]","components":[{"name":"paymentId","type":"string","internalType":"string"},{"name":"payer","type":"address","internalType":"address"},{"name":"payee","type":"address","internalType":"address"},{"name":"amount","type":"uint256","internalType":"uint256"},{"name":"invoiceId","type":"string","internalType":"string"},{"name":"timestamp","type":"uint256","internalType":"uint256"},{"name":"processed","type":"bool","internalType":"bool"},{"name":"txHash","type":"bytes32","internalType":"bytes32"}]}],"stateMutability":"view"},{"type":"function","name":"getPayment","inputs":[{"name":"paymentId","type":"string","internalType":"string"}],"outputs":[{"name":"","type":"tuple","internalType":"struct PaymentGateway.Payment","components":[{"name":"paymentId","type":"string","internalType":"string"},{"name":"payer","type":"address","internalType":"address"},{"name":"payee","type":"address","internalType":"address"},{"name":"amount","type":"uint256","internalType":"uint256"},{"name":"invoiceId","type":"string","internalType":"string"},{"name":"timestamp","type":"uint256","internalType":"uint256"},{"name":"processed","type":"bool","internalType":"bool"},{"name":"txHash","type":"bytes32","internalType":"bytes32"}]}],"stateMutability":"view"},{"type":"function","name":"getRoleAdmin","inputs":[{"name":"role","type":"bytes32","internalType":"bytes32"}],"outputs":[{"name":"","type":"bytes32","internalType":"bytes32"}],"stateMutability":"view"},{"type":"function","name":"getTotalPayments","inputs":[],"outputs":[{"name":"","type":"uint256","internalType":"uint256"}],"stateMutability":"view"},{"type":"function","name":"grantPaymentProcessorRole","inputs":[{"name":"account","type":"address","internalType":"address"}],"outputs":[],"stateMutability":"nonpayable"},{"type":"function","name":"grantRole","inputs":[{"name":"role","type":"bytes32","internalType":"bytes32"},{"name":"account","type":"address","internalType":"address"}],"outputs":[],"stateMutability":"nonpayable"},{"type":"function","name":"hasRole","inputs":[{"name":"role","type":"bytes32","internalType":"bytes32"},{"name":"account","type":"address","internalType":"address"}],"outputs":[{"name":"","type":"bool","internalType":"bool"}],"stateMutability":"view"},{"type":"function","name":"isPaymentProcessed","inputs":[{"name":"paymentId","type":"string","internalType":"string"}],"outputs":[{"name":"","type":"bool","internalType":"bool"}],"stateMutability":"view"},{"type":"function","name":"payeePayments","inputs":[{"name":"","type":"address","internalType":"address"},{"name":"","type":"uint256","internalType":"uint256"}],"outputs":[{"name":"","type":"string","internalType":"string"}],"stateMutability":"view"},{"type":"function","name":"payerPayments","inputs":[{"name":"","type":"address","internalType":"address"},{"name":"","type":"uint256","internalType":"uint256"}],"outputs":[{"name":"","type":"string","internalType":"string"}],"stateMutability":"view"},{"type":"function","name":"paymentIds","inputs":[{"name":"","type":"uint256","internalType":"uint256"}],"outputs":[{"name":"","type":"string","internalType":"string"}],"stateMutability":"view"},{"type":"function","name":"payments","inputs":[{"name":"","type":"string","internalType":"string"}],"outputs":[{"name":"paymentId","type":"string","internalType":"string"},{"name":"payer","type":"address","internalType":"address"},{"name":"payee","type":"address","internalType":"address"},{"name":"amount","type":"uint256","internalType":"uint256"},{"name":"invoiceId","type":"string","internalType":"string"},{"name":"timestamp","type":"uint256","internalType":"uint256"},{"name":"processed","type":"bool","internalType":"bool"},{"name":"txHash","type":"bytes32","internalType":"bytes32"}],"stateMutability":"view"},{"type":"function","name":"processPayment","inputs":[{"name":"paymentId","type":"string","internalType":"string"},{"name":"payer","type":"address","internalType":"address"},{"name":"payee","type":"address","internalType":"address"},{"name":"amount","type":"uint256","internalType":"uint256"},{"name":"invoiceId","type":"string","internalType":"string"}],"outputs":[{"name":"","type":"bool","internalType":"bool"}],"stateMutability":"nonpayable"},{"type":"function","name":"renounceRole","inputs":[{"name":"role","type":"bytes32","internalType":"bytes32"},{"name":"callerConfirmation","type":"address","internalType":"address"}],"outputs":[],"stateMutability":"nonpayable"},{"type":"function","name":"revokePaymentProcessorRole","inputs":[{"name":"account","type":"address","internalType":"address"}],"outputs":[],"stateMutability":"nonpayable"},{"type":"function","name":"revokeRole","inputs":[{"name":"role","type":"bytes32","internalType":"bytes32"},{"name":"account","type":"address","internalType":"address"}],"outputs":[],"stateMutability":"nonpayable"},{"type":"function","name":"supportsInterface","inputs":[{"name":"interfaceId","type":"bytes4","internalType":"bytes4"}],"outputs":[{"name":"","type":"bool","internalType":"bool"}],"stateMutability":"view"},{"type":"event","name":"PaymentProcessed","inputs":[{"name":"paymentId","type":"string","indexed":true,"internalType":"string"},{"name":"payer","type":"address","indexed":true,"internalType":"address"},{"name":"payee","type":"address","indexed":true,"internalType":"address"},{"name":"amount","type":"uint256","indexed":false,"internalType":"uint256"},{"name":"invoiceId","type":"string","indexed":false,"internalType":"string"},{"name":"txHash","type":"bytes32","indexed":false,"internalType":"bytes32"},{"name":"timestamp","type":"uint256","indexed":false,"internalType":"uint256"}],"anonymous":false},{"type":"event","name":"PaymentProcessorRoleGranted","inputs":[{"name":"account","type":"address","indexed":true,"internalType":"address"},{"name":"admin","type":"address","indexed":true,"internalType":"address"}],"anonymous":false},{"type":"event","name":"PaymentProcessorRoleRevoked","inputs":[{"name":"account","type":"address","indexed":true,"internalType":"address"},{"name":"admin","type":"address","indexed":true,"internalType":"address"}],"anonymous":false},{"type":"event","name":"RoleAdminChanged","inputs":[{"name":"role","type":"bytes32","indexed":true,"internalType":"bytes32"},{"name":"previousAdminRole","type":"bytes32","indexed":true,"internalType":"bytes32"},{"name":"newAdminRole","type":"bytes32","indexed":true,"internalType":"bytes32"}],"anonymous":false},{"type":"event","name":"RoleGranted","inputs":[{"name":"role","type":"bytes32","indexed":true,"internalType":"bytes32"},{"name":"account","type":"address","indexed":true,"internalType":"address"},{"name":"sender","type":"address","indexed":true,"internalType":"address"}],"anonymous":false},{"type":"event","name":"RoleRevoked","inputs":[{"name":"role","type":"bytes32","indexed":true,"internalType":"bytes32"},{"name":"account","type":"address","indexed":true,"internalType":"address"},{"name":"sender","type":"address","indexed":true,"internalType":"address"}],"anonymous":false},{"type":"error","name":"AccessControlBadConfirmation","inputs":[]},{"type":"error","name":"AccessControlUnauthorizedAccount","inputs":[{"name":"account","type":"address","internalType":"address"},{"name":"neededRole","type":"bytes32","internalType":"bytes32"}]},{"type":"error","name":"ReentrancyGuardReentrantCall","inputs":[]}],"bytecode":{"object":"0x60a060405234801561000f575f5ffd5b50604051613ce4380380613ce48339818101604052810190610031919061036e565b600161004f61004461017f60201b60201c565b6101a860201b60201c565b5f01819055505f73ffffffffffffffffffffffffffffffffffffffff168273ffffffffffffffffffffffffffffffffffffffff16036100c3576040517f08c379a00000000000000000000000000000000000000000000000000000000081526004016100ba9061042c565b60405180910390fd5b5f73ffffffffffffffffffffffffffffffffffffffff168173ffffffffffffffffffffffffffffffffffffffff1603610131576040517f08c379a0000000000000000000000000000000000000000000000000000000008152600401610128906104ba565b60405180910390fd5b8173ffffffffffffffffffffffffffffffffffffffff1660808173ffffffffffffffffffffffffffffffffffffffff16815250506101775f5f1b826101b160201b60201c565b5050506104d8565b5f7f9b779b17422d0df92223018b32b4d1fa46e071723d6817e2486d003becc55f005f1b905090565b5f819050919050565b5f6101c283836102a660201b60201c565b61029c5760015f5f8581526020019081526020015f205f015f8473ffffffffffffffffffffffffffffffffffffffff1673ffffffffffffffffffffffffffffffffffffffff1681526020019081526020015f205f6101000a81548160ff02191690831515021790555061023961030960201b60201c565b73ffffffffffffffffffffffffffffffffffffffff168273ffffffffffffffffffffffffffffffffffffffff16847f2f8788117e7eff1d82e926ec794901d17c78024a50270940304540a733656f0d60405160405180910390a4600190506102a0565b5f90505b92915050565b5f5f5f8481526020019081526020015f205f015f8373ffffffffffffffffffffffffffffffffffffffff1673ffffffffffffffffffffffffffffffffffffffff1681526020019081526020015f205f9054906101000a900460ff16905092915050565b5f33905090565b5f5ffd5b5f73ffffffffffffffffffffffffffffffffffffffff82169050919050565b5f61033d82610314565b9050919050565b61034d81610333565b8114610357575f5ffd5b50565b5f8151905061036881610344565b92915050565b5f5f6040838503121561038457610383610310565b5b5f6103918582860161035a565b92505060206103a28582860161035a565b9150509250929050565b5f82825260208201905092915050565b7f5061796d656e74476174657761793a20696e76616c6964204575726f546f6b655f8201527f6e20616464726573730000000000000000000000000000000000000000000000602082015250565b5f6104166029836103ac565b9150610421826103bc565b604082019050919050565b5f6020820190508181035f8301526104438161040a565b9050919050565b7f5061796d656e74476174657761793a20696e76616c6964206f776e65722061645f8201527f6472657373000000000000000000000000000000000000000000000000000000602082015250565b5f6104a46025836103ac565b91506104af8261044a565b604082019050919050565b5f6020820190508181035f8301526104d181610498565b9050919050565b6080516137d16105135f395f81816106f601528181610abd01528181610b9901528181610c7301528181611904015261199f01526137d15ff3fe608060405234801561000f575f5ffd5b5060043610610140575f3560e01c8063708f29a6116100b6578063c69207a31161007a578063c69207a3146103ac578063d547741f146103dc578063d92de32f146103f8578063e043610814610428578063f946871314610458578063feb70f611461048f57610140565b8063708f29a6146102e057806376c8a948146102fe57806391d148541461032e5780639ba6737c1461035e578063a217fddf1461038e57610140565b8063248a9ca311610108578063248a9ca31461020e5780632dfb39fd1461023e5780632f2ff15d1461025c57806336568abe146102785780633c649fdb14610294578063418b1f4a146102b057610140565b806301ffc9a7146101445780630b7fe72d146101745780630d14f0dd14610192578063149f2e88146101c257806314d1ec05146101f2575b5f5ffd5b61015e60048036038101906101599190612439565b6104bf565b60405161016b919061247e565b60405180910390f35b61017c610538565b60405161018991906124af565b60405180910390f35b6101ac60048036038101906101a79190612555565b61055c565b6040516101b99190612603565b60405180910390f35b6101dc60048036038101906101d7919061274f565b61060d565b6040516101e9919061247e565b60405180910390f35b61020c60048036038101906102079190612796565b610643565b005b610228600480360381019061022391906127eb565b6106d8565b60405161023591906124af565b60405180910390f35b6102466106f4565b6040516102539190612871565b60405180910390f35b6102766004803603810190610271919061288a565b610718565b005b610292600480360381019061028d919061288a565b61073a565b005b6102ae60048036038101906102a99190612796565b6107b5565b005b6102ca60048036038101906102c591906128c8565b61084a565b6040516102d7919061247e565b60405180910390f35b6102e86110a4565b6040516102f59190612986565b60405180910390f35b61031860048036038101906103139190612555565b6110b0565b6040516103259190612603565b60405180910390f35b6103486004803603810190610343919061288a565b611161565b604051610355919061247e565b60405180910390f35b6103786004803603810190610373919061299f565b6111c4565b6040516103859190612603565b60405180910390f35b61039661126a565b6040516103a391906124af565b60405180910390f35b6103c660048036038101906103c1919061274f565b611270565b6040516103d39190612b02565b60405180910390f35b6103f660048036038101906103f1919061288a565b6114aa565b005b610412600480360381019061040d9190612796565b6114cc565b60405161041f9190612c91565b60405180910390f35b610442600480360381019061043d9190612555565b6118ba565b60405161044f919061247e565b60405180910390f35b610472600480360381019061046d919061274f565b611a54565b604051610486989796959493929190612cc0565b60405180910390f35b6104a960048036038101906104a49190612796565b611c06565b6040516104b69190612c91565b60405180910390f35b5f7f7965db0b000000000000000000000000000000000000000000000000000000007bffffffffffffffffffffffffffffffffffffffffffffffffffffffff1916827bffffffffffffffffffffffffffffffffffffffffffffffffffffffff19161480610531575061053082611ff4565b5b9050919050565b7fd7d8b7014b7ed36eb085c9e3e427b642d74cab75ecefda8a757042e63ec5991981565b6003602052815f5260405f208181548110610575575f80fd5b905f5260205f20015f9150915050805461058e90612d77565b80601f01602080910402602001604051908101604052809291908181526020018280546105ba90612d77565b80156106055780601f106105dc57610100808354040283529160200191610605565b820191905f5260205f20905b8154815290600101906020018083116105e857829003601f168201915b505050505081565b5f60018260405161061e9190612de1565b90815260200160405180910390206006015f9054906101000a900460ff169050919050565b5f5f1b61064f8161205d565b6106797fd7d8b7014b7ed36eb085c9e3e427b642d74cab75ecefda8a757042e63ec5991983612071565b503373ffffffffffffffffffffffffffffffffffffffff168273ffffffffffffffffffffffffffffffffffffffff167f4cde9044c9a4cda7a268e9244300e3304be5272496860d54bd970e616edb99bd60405160405180910390a35050565b5f5f5f8381526020019081526020015f20600101549050919050565b7f000000000000000000000000000000000000000000000000000000000000000081565b610721826106d8565b61072a8161205d565b610734838361215a565b50505050565b610742612243565b73ffffffffffffffffffffffffffffffffffffffff168173ffffffffffffffffffffffffffffffffffffffff16146107a6576040517f6697b23200000000000000000000000000000000000000000000000000000000815260040160405180910390fd5b6107b08282612071565b505050565b5f5f1b6107c18161205d565b6107eb7fd7d8b7014b7ed36eb085c9e3e427b642d74cab75ecefda8a757042e63ec599198361215a565b503373ffffffffffffffffffffffffffffffffffffffff168273ffffffffffffffffffffffffffffffffffffffff167fd63674be6f0528cbe9900f38b209d78a6ffecb1287289845f3c051bfee8d247760405160405180910390a35050565b5f7fd7d8b7014b7ed36eb085c9e3e427b642d74cab75ecefda8a757042e63ec599196108758161205d565b61087d61224a565b5f8751116108c0576040517f08c379a00000000000000000000000000000000000000000000000000000000081526004016108b790612e67565b60405180910390fd5b5f73ffffffffffffffffffffffffffffffffffffffff168673ffffffffffffffffffffffffffffffffffffffff160361092e576040517f08c379a000000000000000000000000000000000000000000000000000000000815260040161092590612ef5565b60405180910390fd5b5f73ffffffffffffffffffffffffffffffffffffffff168573ffffffffffffffffffffffffffffffffffffffff160361099c576040517f08c379a000000000000000000000000000000000000000000000000000000000815260040161099390612f83565b60405180910390fd5b5f84116109de576040517f08c379a00000000000000000000000000000000000000000000000000000000081526004016109d590613011565b60405180910390fd5b8473ffffffffffffffffffffffffffffffffffffffff168673ffffffffffffffffffffffffffffffffffffffff1603610a4c576040517f08c379a0000000000000000000000000000000000000000000000000000000008152600401610a439061309f565b60405180910390fd5b600187604051610a5c9190612de1565b90815260200160405180910390206006015f9054906101000a900460ff1615610aba576040517f08c379a0000000000000000000000000000000000000000000000000000000008152600401610ab19061312d565b60405180910390fd5b837f000000000000000000000000000000000000000000000000000000000000000073ffffffffffffffffffffffffffffffffffffffff1663dd62ed3e88306040518363ffffffff1660e01b8152600401610b1692919061314b565b602060405180830381865afa158015610b31573d5f5f3e3d5ffd5b505050506040513d601f19601f82011682018060405250810190610b559190613186565b1015610b96576040517f08c379a0000000000000000000000000000000000000000000000000000000008152600401610b8d90613221565b60405180910390fd5b837f000000000000000000000000000000000000000000000000000000000000000073ffffffffffffffffffffffffffffffffffffffff166370a08231886040518263ffffffff1660e01b8152600401610bf0919061323f565b602060405180830381865afa158015610c0b573d5f5f3e3d5ffd5b505050506040513d601f19601f82011682018060405250810190610c2f9190613186565b1015610c70576040517f08c379a0000000000000000000000000000000000000000000000000000000008152600401610c67906132c8565b60405180910390fd5b5f7f000000000000000000000000000000000000000000000000000000000000000073ffffffffffffffffffffffffffffffffffffffff166323b872dd8888886040518463ffffffff1660e01b8152600401610cce939291906132e6565b6020604051808303815f875af1158015610cea573d5f5f3e3d5ffd5b505050506040513d601f19601f82011682018060405250810190610d0e9190613345565b905080610d50576040517f08c379a0000000000000000000000000000000000000000000000000000000008152600401610d47906133ba565b60405180910390fd5b5f8888888842604051602001610d6a95949392919061343d565b6040516020818303038152906040528051906020012090506040518061010001604052808a81526020018973ffffffffffffffffffffffffffffffffffffffff1681526020018873ffffffffffffffffffffffffffffffffffffffff1681526020018781526020018681526020014281526020016001151581526020018281525060018a604051610dfb9190612de1565b90815260200160405180910390205f820151815f019081610e1c919061362e565b506020820151816001015f6101000a81548173ffffffffffffffffffffffffffffffffffffffff021916908373ffffffffffffffffffffffffffffffffffffffff1602179055506040820151816002015f6101000a81548173ffffffffffffffffffffffffffffffffffffffff021916908373ffffffffffffffffffffffffffffffffffffffff160217905550606082015181600301556080820151816004019081610ec8919061362e565b5060a0820151816005015560c0820151816006015f6101000a81548160ff02191690831515021790555060e08201518160070155905050600289908060018154018082558091505060019003905f5260205f20015f909190919091509081610f30919061362e565b5060035f8973ffffffffffffffffffffffffffffffffffffffff1673ffffffffffffffffffffffffffffffffffffffff1681526020019081526020015f2089908060018154018082558091505060019003905f5260205f20015f909190919091509081610f9d919061362e565b5060045f8873ffffffffffffffffffffffffffffffffffffffff1673ffffffffffffffffffffffffffffffffffffffff1681526020019081526020015f2089908060018154018082558091505060019003905f5260205f20015f90919091909150908161100a919061362e565b508673ffffffffffffffffffffffffffffffffffffffff168873ffffffffffffffffffffffffffffffffffffffff168a6040516110479190612de1565b60405180910390207f78ba539b53799396309c8b81ab1f1a1cf3729f5caf12afebfb77cb685be324ea8989864260405161108494939291906136fd565b60405180910390a460019350505061109a61226c565b5095945050505050565b5f600280549050905090565b6004602052815f5260405f2081815481106110c9575f80fd5b905f5260205f20015f915091505080546110e290612d77565b80601f016020809104026020016040519081016040528092919081815260200182805461110e90612d77565b80156111595780601f1061113057610100808354040283529160200191611159565b820191905f5260205f20905b81548152906001019060200180831161113c57829003601f168201915b505050505081565b5f5f5f8481526020019081526020015f205f015f8373ffffffffffffffffffffffffffffffffffffffff1673ffffffffffffffffffffffffffffffffffffffff1681526020019081526020015f205f9054906101000a900460ff16905092915050565b600281815481106111d3575f80fd5b905f5260205f20015f9150905080546111eb90612d77565b80601f016020809104026020016040519081016040528092919081815260200182805461121790612d77565b80156112625780601f1061123957610100808354040283529160200191611262565b820191905f5260205f20905b81548152906001019060200180831161124557829003601f168201915b505050505081565b5f5f1b81565b611278612366565b6001826040516112889190612de1565b9081526020016040518091039020604051806101000160405290815f820180546112b190612d77565b80601f01602080910402602001604051908101604052809291908181526020018280546112dd90612d77565b80156113285780601f106112ff57610100808354040283529160200191611328565b820191905f5260205f20905b81548152906001019060200180831161130b57829003601f168201915b50505050508152602001600182015f9054906101000a900473ffffffffffffffffffffffffffffffffffffffff1673ffffffffffffffffffffffffffffffffffffffff1673ffffffffffffffffffffffffffffffffffffffff168152602001600282015f9054906101000a900473ffffffffffffffffffffffffffffffffffffffff1673ffffffffffffffffffffffffffffffffffffffff1673ffffffffffffffffffffffffffffffffffffffff168152602001600382015481526020016004820180546113f590612d77565b80601f016020809104026020016040519081016040528092919081815260200182805461142190612d77565b801561146c5780601f106114435761010080835404028352916020019161146c565b820191905f5260205f20905b81548152906001019060200180831161144f57829003601f168201915b5050505050815260200160058201548152602001600682015f9054906101000a900460ff161515151581526020016007820154815250509050919050565b6114b3826106d8565b6114bc8161205d565b6114c68383612071565b50505050565b60605f60035f8473ffffffffffffffffffffffffffffffffffffffff1673ffffffffffffffffffffffffffffffffffffffff1681526020019081526020015f20805480602002602001604051908101604052809291908181526020015f905b828210156115d3578382905f5260205f2001805461154890612d77565b80601f016020809104026020016040519081016040528092919081815260200182805461157490612d77565b80156115bf5780601f10611596576101008083540402835291602001916115bf565b820191905f5260205f20905b8154815290600101906020018083116115a257829003601f168201915b50505050508152602001906001019061152b565b5050505090505f815167ffffffffffffffff8111156115f5576115f461262b565b5b60405190808252806020026020018201604052801561162e57816020015b61161b612366565b8152602001906001900390816116135790505b5090505f5f90505b82518110156118af57600183828151811061165457611653613747565b5b60200260200101516040516116699190612de1565b9081526020016040518091039020604051806101000160405290815f8201805461169290612d77565b80601f01602080910402602001604051908101604052809291908181526020018280546116be90612d77565b80156117095780601f106116e057610100808354040283529160200191611709565b820191905f5260205f20905b8154815290600101906020018083116116ec57829003601f168201915b50505050508152602001600182015f9054906101000a900473ffffffffffffffffffffffffffffffffffffffff1673ffffffffffffffffffffffffffffffffffffffff1673ffffffffffffffffffffffffffffffffffffffff168152602001600282015f9054906101000a900473ffffffffffffffffffffffffffffffffffffffff1673ffffffffffffffffffffffffffffffffffffffff1673ffffffffffffffffffffffffffffffffffffffff168152602001600382015481526020016004820180546117d690612d77565b80601f016020809104026020016040519081016040528092919081815260200182805461180290612d77565b801561184d5780601f106118245761010080835404028352916020019161184d565b820191905f5260205f20905b81548152906001019060200180831161183057829003601f168201915b5050505050815260200160058201548152602001600682015f9054906101000a900460ff1615151515815260200160078201548152505082828151811061189757611896613747565b5b60200260200101819052508080600101915050611636565b508092505050919050565b5f5f73ffffffffffffffffffffffffffffffffffffffff168373ffffffffffffffffffffffffffffffffffffffff1614806118f457505f82145b15611901575f9050611a4e565b5f7f000000000000000000000000000000000000000000000000000000000000000073ffffffffffffffffffffffffffffffffffffffff166370a08231856040518263ffffffff1660e01b815260040161195b919061323f565b602060405180830381865afa158015611976573d5f5f3e3d5ffd5b505050506040513d601f19601f8201168201806040525081019061199a9190613186565b90505f7f000000000000000000000000000000000000000000000000000000000000000073ffffffffffffffffffffffffffffffffffffffff1663dd62ed3e86306040518363ffffffff1660e01b81526004016119f892919061314b565b602060405180830381865afa158015611a13573d5f5f3e3d5ffd5b505050506040513d601f19601f82011682018060405250810190611a379190613186565b9050838210158015611a495750838110155b925050505b92915050565b6001818051602081018201805184825260208301602085012081835280955050505050505f91509050805f018054611a8b90612d77565b80601f0160208091040260200160405190810160405280929190818152602001828054611ab790612d77565b8015611b025780601f10611ad957610100808354040283529160200191611b02565b820191905f5260205f20905b815481529060010190602001808311611ae557829003601f168201915b505050505090806001015f9054906101000a900473ffffffffffffffffffffffffffffffffffffffff1690806002015f9054906101000a900473ffffffffffffffffffffffffffffffffffffffff1690806003015490806004018054611b6790612d77565b80601f0160208091040260200160405190810160405280929190818152602001828054611b9390612d77565b8015611bde5780601f10611bb557610100808354040283529160200191611bde565b820191905f5260205f20905b815481529060010190602001808311611bc157829003601f168201915b505050505090806005015490806006015f9054906101000a900460ff16908060070154905088565b60605f60045f8473ffffffffffffffffffffffffffffffffffffffff1673ffffffffffffffffffffffffffffffffffffffff1681526020019081526020015f20805480602002602001604051908101604052809291908181526020015f905b82821015611d0d578382905f5260205f20018054611c8290612d77565b80601f0160208091040260200160405190810160405280929190818152602001828054611cae90612d77565b8015611cf95780601f10611cd057610100808354040283529160200191611cf9565b820191905f5260205f20905b815481529060010190602001808311611cdc57829003601f168201915b505050505081526020019060010190611c65565b5050505090505f815167ffffffffffffffff811115611d2f57611d2e61262b565b5b604051908082528060200260200182016040528015611d6857816020015b611d55612366565b815260200190600190039081611d4d5790505b5090505f5f90505b8251811015611fe9576001838281518110611d8e57611d8d613747565b5b6020026020010151604051611da39190612de1565b9081526020016040518091039020604051806101000160405290815f82018054611dcc90612d77565b80601f0160208091040260200160405190810160405280929190818152602001828054611df890612d77565b8015611e435780601f10611e1a57610100808354040283529160200191611e43565b820191905f5260205f20905b815481529060010190602001808311611e2657829003601f168201915b50505050508152602001600182015f9054906101000a900473ffffffffffffffffffffffffffffffffffffffff1673ffffffffffffffffffffffffffffffffffffffff1673ffffffffffffffffffffffffffffffffffffffff168152602001600282015f9054906101000a900473ffffffffffffffffffffffffffffffffffffffff1673ffffffffffffffffffffffffffffffffffffffff1673ffffffffffffffffffffffffffffffffffffffff16815260200160038201548152602001600482018054611f1090612d77565b80601f0160208091040260200160405190810160405280929190818152602001828054611f3c90612d77565b8015611f875780601f10611f5e57610100808354040283529160200191611f87565b820191905f5260205f20905b815481529060010190602001808311611f6a57829003601f168201915b5050505050815260200160058201548152602001600682015f9054906101000a900460ff16151515158152602001600782015481525050828281518110611fd157611fd0613747565b5b60200260200101819052508080600101915050611d70565b508092505050919050565b5f7f01ffc9a7000000000000000000000000000000000000000000000000000000007bffffffffffffffffffffffffffffffffffffffffffffffffffffffff1916827bffffffffffffffffffffffffffffffffffffffffffffffffffffffff1916149050919050565b61206e81612069612243565b612286565b50565b5f61207c8383611161565b15612150575f5f5f8581526020019081526020015f205f015f8473ffffffffffffffffffffffffffffffffffffffff1673ffffffffffffffffffffffffffffffffffffffff1681526020019081526020015f205f6101000a81548160ff0219169083151502179055506120ed612243565b73ffffffffffffffffffffffffffffffffffffffff168273ffffffffffffffffffffffffffffffffffffffff16847ff6391f5c32d9c69d2a47ea670b442974b53935d1edc7fd64eb21e047a839171b60405160405180910390a460019050612154565b5f90505b92915050565b5f6121658383611161565b6122395760015f5f8581526020019081526020015f205f015f8473ffffffffffffffffffffffffffffffffffffffff1673ffffffffffffffffffffffffffffffffffffffff1681526020019081526020015f205f6101000a81548160ff0219169083151502179055506121d6612243565b73ffffffffffffffffffffffffffffffffffffffff168273ffffffffffffffffffffffffffffffffffffffff16847f2f8788117e7eff1d82e926ec794901d17c78024a50270940304540a733656f0d60405160405180910390a46001905061223d565b5f90505b92915050565b5f33905090565b6122526122d7565b600261226461225f612318565b612341565b5f0181905550565b600161227e612279612318565b612341565b5f0181905550565b6122908282611161565b6122d35780826040517fe2517d3f0000000000000000000000000000000000000000000000000000000081526004016122ca929190613774565b60405180910390fd5b5050565b6122df61234a565b15612316576040517f3ee5aeb500000000000000000000000000000000000000000000000000000000815260040160405180910390fd5b565b5f7f9b779b17422d0df92223018b32b4d1fa46e071723d6817e2486d003becc55f005f1b905090565b5f819050919050565b5f600261235d612358612318565b612341565b5f015414905090565b604051806101000160405280606081526020015f73ffffffffffffffffffffffffffffffffffffffff1681526020015f73ffffffffffffffffffffffffffffffffffffffff1681526020015f8152602001606081526020015f81526020015f151581526020015f81525090565b5f604051905090565b5f5ffd5b5f5ffd5b5f7fffffffff0000000000000000000000000000000000000000000000000000000082169050919050565b612418816123e4565b8114612422575f5ffd5b50565b5f813590506124338161240f565b92915050565b5f6020828403121561244e5761244d6123dc565b5b5f61245b84828501612425565b91505092915050565b5f8115159050919050565b61247881612464565b82525050565b5f6020820190506124915f83018461246f565b92915050565b5f819050919050565b6124a981612497565b82525050565b5f6020820190506124c25f8301846124a0565b92915050565b5f73ffffffffffffffffffffffffffffffffffffffff82169050919050565b5f6124f1826124c8565b9050919050565b612501816124e7565b811461250b575f5ffd5b50565b5f8135905061251c816124f8565b92915050565b5f819050919050565b61253481612522565b811461253e575f5ffd5b50565b5f8135905061254f8161252b565b92915050565b5f5f6040838503121561256b5761256a6123dc565b5b5f6125788582860161250e565b925050602061258985828601612541565b9150509250929050565b5f81519050919050565b5f82825260208201905092915050565b8281835e5f83830152505050565b5f601f19601f8301169050919050565b5f6125d582612593565b6125df818561259d565b93506125ef8185602086016125ad565b6125f8816125bb565b840191505092915050565b5f6020820190508181035f83015261261b81846125cb565b905092915050565b5f5ffd5b5f5ffd5b7f4e487b71000000000000000000000000000000000000000000000000000000005f52604160045260245ffd5b612661826125bb565b810181811067ffffffffffffffff821117156126805761267f61262b565b5b80604052505050565b5f6126926123d3565b905061269e8282612658565b919050565b5f67ffffffffffffffff8211156126bd576126bc61262b565b5b6126c6826125bb565b9050602081019050919050565b828183375f83830152505050565b5f6126f36126ee846126a3565b612689565b90508281526020810184848401111561270f5761270e612627565b5b61271a8482856126d3565b509392505050565b5f82601f83011261273657612735612623565b5b81356127468482602086016126e1565b91505092915050565b5f60208284031215612764576127636123dc565b5b5f82013567ffffffffffffffff811115612781576127806123e0565b5b61278d84828501612722565b91505092915050565b5f602082840312156127ab576127aa6123dc565b5b5f6127b88482850161250e565b91505092915050565b6127ca81612497565b81146127d4575f5ffd5b50565b5f813590506127e5816127c1565b92915050565b5f60208284031215612800576127ff6123dc565b5b5f61280d848285016127d7565b91505092915050565b5f819050919050565b5f61283961283461282f846124c8565b612816565b6124c8565b9050919050565b5f61284a8261281f565b9050919050565b5f61285b82612840565b9050919050565b61286b81612851565b82525050565b5f6020820190506128845f830184612862565b92915050565b5f5f604083850312156128a05761289f6123dc565b5b5f6128ad858286016127d7565b92505060206128be8582860161250e565b9150509250929050565b5f5f5f5f5f60a086880312156128e1576128e06123dc565b5b5f86013567ffffffffffffffff8111156128fe576128fd6123e0565b5b61290a88828901612722565b955050602061291b8882890161250e565b945050604061292c8882890161250e565b935050606061293d88828901612541565b925050608086013567ffffffffffffffff81111561295e5761295d6123e0565b5b61296a88828901612722565b9150509295509295909350565b61298081612522565b82525050565b5f6020820190506129995f830184612977565b92915050565b5f602082840312156129b4576129b36123dc565b5b5f6129c184828501612541565b91505092915050565b5f82825260208201905092915050565b5f6129e482612593565b6129ee81856129ca565b93506129fe8185602086016125ad565b612a07816125bb565b840191505092915050565b612a1b816124e7565b82525050565b612a2a81612522565b82525050565b612a3981612464565b82525050565b612a4881612497565b82525050565b5f61010083015f8301518482035f860152612a6982826129da565b9150506020830151612a7e6020860182612a12565b506040830151612a916040860182612a12565b506060830151612aa46060860182612a21565b5060808301518482036080860152612abc82826129da565b91505060a0830151612ad160a0860182612a21565b5060c0830151612ae460c0860182612a30565b5060e0830151612af760e0860182612a3f565b508091505092915050565b5f6020820190508181035f830152612b1a8184612a4e565b905092915050565b5f81519050919050565b5f82825260208201905092915050565b5f819050602082019050919050565b5f61010083015f8301518482035f860152612b6682826129da565b9150506020830151612b7b6020860182612a12565b506040830151612b8e6040860182612a12565b506060830151612ba16060860182612a21565b5060808301518482036080860152612bb982826129da565b91505060a0830151612bce60a0860182612a21565b5060c0830151612be160c0860182612a30565b5060e0830151612bf460e0860182612a3f565b508091505092915050565b5f612c0a8383612b4b565b905092915050565b5f602082019050919050565b5f612c2882612b22565b612c328185612b2c565b935083602082028501612c4485612b3c565b805f5b85811015612c7f5784840389528151612c608582612bff565b9450612c6b83612c12565b925060208a01995050600181019050612c47565b50829750879550505050505092915050565b5f6020820190508181035f830152612ca98184612c1e565b905092915050565b612cba816124e7565b82525050565b5f610100820190508181035f830152612cd9818b6125cb565b9050612ce8602083018a612cb1565b612cf56040830189612cb1565b612d026060830188612977565b8181036080830152612d1481876125cb565b9050612d2360a0830186612977565b612d3060c083018561246f565b612d3d60e08301846124a0565b9998505050505050505050565b7f4e487b71000000000000000000000000000000000000000000000000000000005f52602260045260245ffd5b5f6002820490506001821680612d8e57607f821691505b602082108103612da157612da0612d4a565b5b50919050565b5f81905092915050565b5f612dbb82612593565b612dc58185612da7565b9350612dd58185602086016125ad565b80840191505092915050565b5f612dec8284612db1565b915081905092915050565b7f5061796d656e74476174657761793a207061796d656e7449642063616e6e6f745f8201527f20626520656d7074790000000000000000000000000000000000000000000000602082015250565b5f612e5160298361259d565b9150612e5c82612df7565b604082019050919050565b5f6020820190508181035f830152612e7e81612e45565b9050919050565b7f5061796d656e74476174657761793a2070617965722063616e6e6f74206265205f8201527f7a65726f20616464726573730000000000000000000000000000000000000000602082015250565b5f612edf602c8361259d565b9150612eea82612e85565b604082019050919050565b5f6020820190508181035f830152612f0c81612ed3565b9050919050565b7f5061796d656e74476174657761793a2070617965652063616e6e6f74206265205f8201527f7a65726f20616464726573730000000000000000000000000000000000000000602082015250565b5f612f6d602c8361259d565b9150612f7882612f13565b604082019050919050565b5f6020820190508181035f830152612f9a81612f61565b9050919050565b7f5061796d656e74476174657761793a20616d6f756e74206d75737420626520675f8201527f726561746572207468616e207a65726f00000000000000000000000000000000602082015250565b5f612ffb60308361259d565b915061300682612fa1565b604082019050919050565b5f6020820190508181035f83015261302881612fef565b9050919050565b7f5061796d656e74476174657761793a20706179657220616e64207061796565205f8201527f63616e6e6f74206265207468652073616d650000000000000000000000000000602082015250565b5f61308960328361259d565b91506130948261302f565b604082019050919050565b5f6020820190508181035f8301526130b68161307d565b9050919050565b7f5061796d656e74476174657761793a207061796d656e7420616c7265616479205f8201527f70726f6365737365640000000000000000000000000000000000000000000000602082015250565b5f61311760298361259d565b9150613122826130bd565b604082019050919050565b5f6020820190508181035f8301526131448161310b565b9050919050565b5f60408201905061315e5f830185612cb1565b61316b6020830184612cb1565b9392505050565b5f815190506131808161252b565b92915050565b5f6020828403121561319b5761319a6123dc565b5b5f6131a884828501613172565b91505092915050565b7f5061796d656e74476174657761793a20696e73756666696369656e7420616c6c5f8201527f6f77616e63650000000000000000000000000000000000000000000000000000602082015250565b5f61320b60268361259d565b9150613216826131b1565b604082019050919050565b5f6020820190508181035f830152613238816131ff565b9050919050565b5f6020820190506132525f830184612cb1565b92915050565b7f5061796d656e74476174657761793a20696e73756666696369656e742062616c5f8201527f616e636500000000000000000000000000000000000000000000000000000000602082015250565b5f6132b260248361259d565b91506132bd82613258565b604082019050919050565b5f6020820190508181035f8301526132df816132a6565b9050919050565b5f6060820190506132f95f830186612cb1565b6133066020830185612cb1565b6133136040830184612977565b949350505050565b61332481612464565b811461332e575f5ffd5b50565b5f8151905061333f8161331b565b92915050565b5f6020828403121561335a576133596123dc565b5b5f61336784828501613331565b91505092915050565b7f5061796d656e74476174657761793a207472616e73666572206661696c6564005f82015250565b5f6133a4601f8361259d565b91506133af82613370565b602082019050919050565b5f6020820190508181035f8301526133d181613398565b9050919050565b5f8160601b9050919050565b5f6133ee826133d8565b9050919050565b5f6133ff826133e4565b9050919050565b613417613412826124e7565b6133f5565b82525050565b5f819050919050565b61343761343282612522565b61341d565b82525050565b5f6134488288612db1565b91506134548287613406565b6014820191506134648286613406565b6014820191506134748285613426565b6020820191506134848284613426565b6020820191508190509695505050505050565b5f819050815f5260205f209050919050565b5f6020601f8301049050919050565b5f82821b905092915050565b5f600883026134f37fffffffffffffffffffffffffffffffffffffffffffffffffffffffffffffffff826134b8565b6134fd86836134b8565b95508019841693508086168417925050509392505050565b5f61352f61352a61352584612522565b612816565b612522565b9050919050565b5f819050919050565b61354883613515565b61355c61355482613536565b8484546134c4565b825550505050565b5f5f905090565b613573613564565b61357e81848461353f565b505050565b5b818110156135a1576135965f8261356b565b600181019050613584565b5050565b601f8211156135e6576135b781613497565b6135c0846134a9565b810160208510156135cf578190505b6135e36135db856134a9565b830182613583565b50505b505050565b5f82821c905092915050565b5f6136065f19846008026135eb565b1980831691505092915050565b5f61361e83836135f7565b9150826002028217905092915050565b61363782612593565b67ffffffffffffffff8111156136505761364f61262b565b5b61365a8254612d77565b6136658282856135a5565b5f60209050601f831160018114613696575f8415613684578287015190505b61368e8582613613565b8655506136f5565b601f1984166136a486613497565b5f5b828110156136cb578489015182556001820191506020850194506020810190506136a6565b868310156136e857848901516136e4601f8916826135f7565b8355505b6001600288020188555050505b505050505050565b5f6080820190506137105f830187612977565b818103602083015261372281866125cb565b905061373160408301856124a0565b61373e6060830184612977565b95945050505050565b7f4e487b71000000000000000000000000000000000000000000000000000000005f52603260045260245ffd5b5f6040820190506137875f830185612cb1565b61379460208301846124a0565b939250505056fea264697066735822122099ca7b4cd9713c75a7b38649f37158ebacef1c82604373ff86ff20002821386864736f6c634300081e0033","linkReferences":{}},"methodIdentifiers":{"DEFAULT_ADMIN_ROLE()":"a217fddf","PAYMENT_PROCESSOR_ROLE()":"0b7fe72d","canProcessPayment(address,uint256)":"e0436108","euroToken()":"2dfb39fd","getPayeePayments(address)":"feb70f61","getPayerPayments(address)":"d92de32f","getPayment(string)":"c69207a3","getRoleAdmin(bytes32)":"248a9ca3","getTotalPayments()":"708f29a6","grantPaymentProcessorRole(address)":"3c649fdb","grantRole(bytes32,address)":"2f2ff15d","hasRole(bytes32,address)":"91d14854","isPaymentProcessed(string)":"149f2e88","payeePayments(address,uint256)":"76c8a948","payerPayments(address,uint256)":"0d14f0dd","paymentIds(uint256)":"9ba6737c","payments(string)":"f9468713","processPayment(string,address,address,uint256,string)":"418b1f4a","renounceRole(bytes32,address)":"36568abe","revokePaymentProcessorRole(address)":"14d1ec05","revokeRole(bytes32,address)":"d547741f","supportsInterface(bytes4)":"01ffc9a7"},"id":32}